:100000000C9463000C94EB060C9418070C948B0072
:100010000C948B000C948B000C948B000C948B0034
:100020000C948B000C94F5020C948B000C948B00B8
:100030000C948B000C948B000C948B000C948B0014
:100040000C9445070C948B000C9477040C94C50415
:100050000C948B000C948B000C948B000C948B00F4
:100060000C948B000C948B000000000024002700EF
:100070002A0000000000250028002B0000000000DE
:1000800023002600290004040404040404040202DA
:100090000202020203030303030301020408102007
:1000A0004080010204081020010204081020000012
:1000B0000007000201000003040600000000000029
:1000C00000000101310611241FBECFEFD8E0DEBFD2
:1000D000CDBF11E0A0E0B1E0E4E9F5E102C0059098
:1000E0000D92A031B107D9F712E0A0E1B1E001C053
:1000F0001D92A031B107E1F710E0C6ECD0E004C0DA
:100100002297FE010E94C40AC23CD107C9F70E948F
:1001100087060C94C80A0C94000080911C019091F1
:100120001D01019690931D0180931C010895AF92CB
:10013000BF92CF92DF92EF92FF920F931F93CF93D4
:10014000DF93A42EBB24A7FCB094C62EDD24C7FCED
:10015000D094CA14DB040CF04FC07C01EC0CFD1CE5
:1001600020E030E040E050E001E0C0E0D0E021C01D
:10017000CA01B9012AE030E040E050E00E94810A63
:100180009B01AC01812F992787FD9095C097AA27E5
:1001900097FDA095BA2F280F391F4A1F5B1F219684
:1001A0000894E11CF11CC6018C0F9D1F8A159B054C
:1001B00064F4F7011081812F80538A30C8F21B321A
:1001C00071F31D3261F70195EACF602F772767FD44
:1001D0007095872F972F0E94810A9B01AC01B9016E
:1001E000CA01DF91CF911F910F91FF90EF90DF90A7
:1001F000CF90BF90AF90089520E030E040E050E015
:10020000EECF0F931F9380E191E06CE040E00E94FD
:10021000330383E191E06DE040E00E94330386E127
:1002200091E06BE040E00E94330389E191E06AE0F5
:1002300040E00E9433038EE291E064E045E026E076
:100240000E94960384E391E067E042E00AE010E058
:1002500020E030E00E9448041F910F91089584E34C
:1002600091E00E94D603695C704080409040633604
:1002700071058105910528F083E191E00E94270333
:10028000089583E191E00E942C03089560911E017E
:10029000643561F0663429F081EE91E00E94C00679
:1002A00008958EE291E00E94770308958EE191E037
:1002B00061E040E40E9497009B01AC018EE291E076
:1002C000B9010E947E030895DF92EF92FF920F938F
:1002D0001F93CF93DF93CEE1D1E020E1F22E11E026
:1002E00092E0D92E83E0E82E0AE081EE91E00E94B0
:1002F0008705892B71F181EE91E00E94B805982F56
:1003000080913B01823068F1823079F780913A0127
:10031000E82FFF27E7FDF095E25EFE4F90838F5FA9
:1003200080933A0190913C018917F9F60E944601A9
:1003300010923B0110923C0110923A01FE018F2D68
:1003400011928A95E9F781EE91E00E948705892B49
:1003500091F6DF91CF911F910F91FF90EF90DF9079
:100360000895813099F090539A3008F0BECF1093E1
:100370003B0180913A01E82FFF27E7FDF095E35C10
:10038000FE4F90838F5F80933A01AFCF9D3061F035
:100390009A3049F7D0923B0110923A01FE018F2D1D
:1003A00011928A95E9F7A1CF10923C0180913A0110
:1003B000482F552747FD5095CA01019722F1ADE31B
:1003C000B1E0FC01EA0FFB1F90E09A012A0F3B1FEE
:1003D00040955095240F351F9002C0011124908143
:1003E000980F3197E217F307B9F790933C01FD019D
:1003F0008E2D11928A95E9F781EE91E060913C0192
:100400000E94C00672CFADE3B1E0F1CF0F931F930E
:1004100081EE91E040E052EC61E070E00E94000566
:100420008EE060E00E9458086AE070E080E090E0B2
:100430002FE632E143E85AE300E312E00E9435027E
:100440000E94940283E062E00E94580881E06DE817
:1004500070E043E050E00E94C8061F910F9108959C
:1004600084E391E00E94B80308950F931F936115F0
:1004700071058105910509F44AC0609340017093AC
:1004800041018093420190934301109345010093F1
:100490004401809170008E7F809370008091B00045
:1004A0008C7F8093B0008091B100877F8093B100F2
:1004B0008091B6008F7D8093B600809170008D7F13
:1004C000809370008091B10084608093B10080912E
:1004D000B1008C7F8093B100CA01B90120E034E201
:1004E00044E75BE40E941E0A20E030E040E85CE361
:1004F0000E941E0A0E945F0920E031E0261B370B94
:1005000030934C0120934B011F910F91089581E08E
:1005100090E0A0E0B0E08093400190934101A0936F
:100520004201B0934301B1CF1092460110924701AE
:10053000109248011092490110924A0180914B019A
:1005400090914C018093B200E0E7F0E080818160FF
:10055000808308958091460190914701A0914801C0
:10056000B09149010196A11DB11D80934601909360
:100570004701A0934801B0934901809146019091B1
:100580004701A0914801B09149012091400130916B
:100590004101409142015091430182179307A40702
:1005A000B50718F080914A018111089581E0809388
:1005B0004A018091460190914701A0914801B09174
:1005C0004901821B930BA40BB50B809346019093BA
:1005D0004701A0934801B0934901E0914401F09193
:1005E0004501099510924A0108951F920F920FB686
:1005F0000F9211242F933F934F935F936F937F93A9
:100600008F939F93AF93BF93EF93FF9380914B0191
:1006100090914C018093B2000E94AA02FF91EF9149
:10062000BF91AF919F918F917F916F915F914F910A
:100630003F912F910F900FBE0F901F901895FC01C6
:1006400062818181682780810E94C4080895FC012D
:1006500011820E941F030895FC0181E08183CF0174
:100660000E941F0308950F931F938C01862FF8019A
:1006700011826083428361E00E945808C8010E9491
:100680001F031F910F910895CF93DF93EC018A818F
:100690006C810E94C40898818D818823A1F060E05C
:1006A00070E0892F0E94F80799818D818823B9F025
:1006B0008B81682F772767FD7095892F0E94F80737
:1006C000DF91CF9108958B81682F772767FD709513
:1006D000892F0E94F80799818D81882349F760E06E
:1006E00070E0892F0E94F807DF91CF910895FC01F7
:1006F0001482158213820E9444030895FC0181E054
:100700008483158277FD07C077FD08C06383CF011E
:100710000E9444030895858377FFF8CF7095619513
:100720007F4F6383CF010E9444030895EF92FF92AD
:100730000F931F938C01862FF42EE22EF801628313
:100740004083218313821482158261E00E9458083D
:100750008F2D61E00E9458088E2D61E00E9458089C
:10076000C8010E9444031F910F91FF90EF900895DC
:100770000F931F938C01FC01848161E00E94C408E7
:100780008AE090E00E94B3070E948D0760934D01BC
:1007900070934E0180934F0190935001F801848132
:1007A00060E00E94C4081F910F910895CF92DF92DC
:1007B000EF92FF920F931F936C010E948D077B01B4
:1007C0008C018091510190915201A0915301B091FF
:1007D0005401E81AF90A0A0B1B0BF60160817181BA
:1007E000828193816F5F7F4F8F4F9F4F28EE33E061
:1007F00040E050E00E94810AE616F7060807190754
:1008000088F4209155013091560140915701509143
:100810005801B901CA011F910F91FF90EF90DF902D
:10082000CF9008952FEF3FEF4FEF5FEFF2CF0E9491
:100830008D0720914D0130914E0140914F01509113
:100840005001621B730B840B950B0E94900920E0F2
:1008500030E04AE254E40E94F70820E030E048EC3F
:1008600052E40E941E0A0E9464096093550170932D
:10087000560180935701909358010E948D07609311
:100880005101709352018093530190935401089544
:10089000FF920F931F93FC01862FF42E64834583F0
:1008A00000831183228333831092550110925601E5
:1008B000109257011092580110924D0110924E0162
:1008C00010924F011092500161E00E9458088F2D44
:1008D00062E00E9458088F2D825067E174E042E088
:1008E00050E00E94C8061F910F91FF9008951F923B
:1008F0000F920FB60F9211242F933F934F938F9324
:100900009F93EF93FF938091C00082FD1DC04091A3
:10091000C6002091990130919A012F5F3F4F2F73AC
:10092000307080919B0190919C012817390771F0DC
:10093000E0919901F0919A01E75AFE4F408330937C
:100940009A012093990102C08091C600FF91EF9116
:100950009F918F914F913F912F910F900FBE0F90CC
:100960001F901895E091ED01F091EE01E05CFF4FD2
:100970008191919120813181821B930B8F739070B3
:10098000892B11F00E94640108951F920F920FB6F7
:100990000F9211242F933F938F939F93EF93FF9385
:1009A0002091DD013091DE018091DF019091E00125
:1009B0002817390731F48091C1008F7D8093C100E1
:1009C00014C0E091DF01F091E001E356FE4F208179
:1009D0008091DF019091E00101968F739070909368
:1009E000E0018093DF012093C600FF91EF919F917A
:1009F0008F913F912F910F900FBE0F901F901895E0
:100A0000AF92BF92DF92EF92FF920F931F93CF931B
:100A1000DF93EC017A018B01DD24403081EE580731
:100A200080E0680780E0780711F0DD24D39491E03E
:100A3000A92EB12CEC89FD89DD2069F0C50108A043
:100A400002C0880F991F0A94E2F7808360E079E082
:100A50008DE390E005C0108260E874E88EE190E0DC
:100A6000A80197010E94A00A215030404040504008
:100A7000569547953795279580E12030380720F027
:100A8000DD2011F0DD24D6CFE889F9893083EA89A9
:100A9000FB89208319A2EE89FF89408121E030E0A3
:100AA000C9010C8C02C0880F991F0A94E2F7482BE9
:100AB0004083EE89FF894081C9010D8C02C0880FF7
:100AC000991F0A94E2F7482B4083EE89FF89408101
:100AD000C9010E8C02C0880F991F0A94E2F7482BB7
:100AE0004083EE89FF8980810F8C02C0220F331F63
:100AF0000A94E2F7209528232083DF91CF911F915C
:100B00000F91FF90EF90DF90BF90AF900895DC01C0
:100B10001C96ED91FC911D97E05CFF4F2191319166
:100B200080819181281B390B2F733070C901089582
:100B3000DC011C96ED91FC911D97E05CFF4F20813C
:100B40003181E054F040DF01AE5BBF4F8D919C914D
:100B500011972817390719F42FEF3FEF07C08D9130
:100B60009C91E80FF91F8081282F30E0C90108957A
:100B7000DC011C96ED91FC911D97E05CFF4F2081FC
:100B80003181E054F040DF01AE5BBF4F8D919C910D
:100B900011972817390719F42FEF3FEF10C08D91E7
:100BA0009C911197E80FF91F20818D919C911197CD
:100BB00001968F73907011969C938E9330E0C901CB
:100BC0000895DC0191968C919197882339F0549681
:100BD000ED91FC915597808186FFF9CF91961C92FB
:100BE0000895CF93DF93EC01EE85FF85E05CFF4F26
:100BF00020813181E054F0402F5F3F4F2F733070E0
:100C0000DF01AE5BBF4F8D919C911197281739077B
:100C1000D1F3E05CFF4F80819181E054F040E80F18
:100C2000F91F6083EE85FF85E05CFF4F31832083F1
:100C3000EE89FF89208181E090E00F8C02C0880F4F
:100C4000991F0A94E2F7282B208381E089A3EC897D
:100C5000FD8980818064808381E090E0DF91CF9185
:100C600008951092E4011092E30188EE93E0A0E071
:100C7000B0E08093E5019093E601A093E701B09383
:100C8000E80184E091E09093E2018093E10189E53D
:100C900091E09093EE018093ED018DE991E09093C6
:100CA000F0018093EF0185EC90E09093F201809346
:100CB000F10184EC90E09093F4018093F30180ECD7
:100CC00090E09093F6018093F50181EC90E0909391
:100CD000F8018093F70182EC90E09093FA01809301
:100CE000F90186EC90E09093FC018093FB0184E095
:100CF0008093FD0183E08093FE0187E08093FF01F4
:100D000085E08093000281E0809301020895CF93F3
:100D1000DF930E94BD070E940602C2EBD4E00E944E
:100D20002F012097E1F30E94B204F9CFCF92DF9216
:100D3000EF92FF920F931F93CF93DF937C016B0190
:100D40008A01C0E0D0E00FC0D6016D916D01D701DE
:100D5000ED91FC910190F081E02DC7010995C80F3C
:100D6000D91F015010400115110571F7CE01DF9117
:100D7000CF911F910F91FF90EF90DF90CF9008954A
:100D8000DC01ED91FC910190F081E02D0995089531
:100D9000823000F5E82FF0E0EE0FFF1FED5FFD4F12
:100DA00071836083882319F08130A1F408C0809199
:100DB00069008C7F842B80936900E89A0895809164
:100DC0006900440F551F440F551F837F842B809368
:100DD0006900E99A08951F920F920FB60F9211249D
:100DE0002F933F934F935F936F937F938F939F9333
:100DF000AF93BF93EF93FF9380910302909104020E
:100E0000892B29F0E0910302F09104020995FF91EA
:100E1000EF91BF91AF919F918F917F916F915F9172
:100E20004F913F912F910F900FBE0F901F901895EB
:100E30001F920F920FB60F9211242F933F934F934F
:100E40005F936F937F938F939F93AF93BF93EF9332
:100E5000FF938091050290910602892B29F0E09181
:100E60000502F09106020995FF91EF91BF91AF91B4
:100E70009F918F917F916F915F914F913F912F91B2
:100E80000F900FBE0F901F9018951F920F920FB6E4
:100E90000F9211242F933F938F939F93AF93BF9300
:100EA00080910B0290910C02A0910D02B0910E0264
:100EB00030910F020196A11DB11D232F2D5F2D37FB
:100EC00020F02D570196A11DB11D20930F02809394
:100ED0000B0290930C02A0930D02B0930E0280912E
:100EE000070290910802A0910902B0910A020196AE
:100EF000A11DB11D8093070290930802A0930902DF
:100F0000B0930A02BF91AF919F918F913F912F9122
:100F10000F900FBE0F901F9018959FB7F8942091D7
:100F20000702309108024091090250910A0286B5E9
:100F3000A89B06C08F3F21F02F5F3F4F4F4F5F4F61
:100F40009FBF542F432F322F2227280F311D411DC1
:100F5000511D82E0220F331F441F551F8A95D1F780
:100F6000B901CA010895019739F0880F991F880FB8
:100F7000991F02970197F1F70895789484B58260DC
:100F800084BD84B5816084BD85B5826085BD85B52D
:100F9000816085BDEEE6F0E0808181608083E1E8DC
:100FA000F0E0108280818260808380818160808314
:100FB000E0E8F0E0808181608083E1EBF0E0808117
:100FC00084608083E0EBF0E0808181608083EAE7E9
:100FD000F0E0808184608083808182608083808172
:100FE000816080838081806880831092C100089531
:100FF0001F93CF93DF93182FEB0161E00E945808F5
:10100000209709F44AC0CF3FD10509F449C0E12F28
:10101000F0E0E255FF4F84918330C1F0843028F432
:10102000813051F08230B1F50CC0863019F1873033
:1010300049F1843079F514C084B5806884BDC7BD9A
:1010400033C084B5806284BDC8BD2EC0809180004D
:10105000806880938000D0938900C093880024C06A
:1010600080918000806280938000D0938B00C09339
:101070008A001AC08091B00080688093B000C0934D
:10108000B30012C08091B00080628093B000C09322
:10109000B4000AC0C038D1051CF4812F60E002C042
:1010A000812F61E00E94C408DF91CF911F910895C4
:1010B000CF93DF93482F50E0CA0186569F4FFC0123
:1010C00034914A575F4FFA018491882369F190E087
:1010D000880F991FFC01E859FF4FA591B491FC01BD
:1010E000EE58FF4FC591D491662351F42FB7F89471
:1010F0008C91932F909589238C93888189230BC0A1
:10110000623061F42FB7F8948C91932F90958923D6
:101110008C938881832B88832FBF06C09FB7F89458
:101120008C91832B8C939FBFDF91CF910895833057
:1011300071F0843028F48130A1F0823021F514C0A0
:101140008630B1F08730D1F08430E9F404C080916A
:1011500080008F7703C0809180008F7D8093800016
:10116000089584B58F7702C084B58F7D84BD0895BE
:101170008091B0008F778093B00008958091B00087
:101180008F7D8093B0000895FF920F931F93F62EEA
:10119000482F50E0CA0182559F4FFC012491CA019B
:1011A00086569F4FFC0114914A575F4FFA010491F4
:1011B0000023C9F0222319F0822F0E949708E02F04
:1011C000F0E0EE0FFF1FEE58FF4FA591B4919FB7CF
:1011D000F894FF2021F48C911095812302C08C910A
:1011E000812B8C939FBF1F910F91FF9008950CD07E
:1011F000EBC0E3D040F0DAD030F021F45F3F19F0DB
:10120000CCC0511115C1CFC0F0D098F39923C9F3C8
:101210005523B1F3951B550BBB27AA2762177307FC
:10122000840738F09F5F5F4F220F331F441FAA1FB0
:10123000A9F333D00E2E3AF0E0E830D09150504070
:10124000E695001CCAF729D0FE2F27D0660F771F1E
:10125000881FBB1F261737074807AB07B0E809F000
:10126000BB0B802DBF01FF2793585F4F2AF09E3F95
:10127000510568F092C0DCC05F3FECF3983EDCF3B0
:10128000869577956795B795F7959F5FC9F7880F0E
:10129000911D9695879597F90895E1E0660F771F60
:1012A000881FBB1F621773078407BA0720F0621BF1
:1012B000730B840BBA0BEE1F88F7E095089504D0EA
:1012C0006894B111B5C0089598D088F09F5790F0F8
:1012D000B92F9927B751A0F0D1F0660F771F881F5B
:1012E000991F1AF0BA95C9F712C0B13081F09FD09A
:1012F000B1E008959CC0672F782F8827B85F39F038
:10130000B93FCCF3869577956795B395D9F73EF4B9
:1013100090958095709561957F4F8F4F9F4F089561
:10132000E89409C097FB3EF490958095709561957F
:101330007F4F8F4F9F4F9923A9F0F92F96E9BB2735
:101340009395F695879577956795B795F111F8CFB1
:10135000FAF4BB0F11F460FF1BC06F5F7F4F8F4F1C
:101360009F4F16C0882311F096E911C0772321F012
:101370009EE8872F762F05C0662371F096E8862FAA
:1013800070E060E02AF09A95660F771F881FDAF701
:10139000880F9695879597F9089597F99F6780E844
:1013A00070E060E008959FEF80EC089500240A94B7
:1013B0001616170618060906089500240A94121630
:1013C0001306140605060895092E0394000C11F463
:1013D000882352F0BB0F40F4BF2B11F460FF04C010
:1013E0006F5F7F4F8F4F9F4F089557FD9058440F69
:1013F000551F59F05F3F71F04795880F97FB991F74
:1014000061F09F3F79F08795089512161306140630
:10141000551FF2CF4695F1DF08C0161617061806BD
:10142000991FF1CF86957105610508940895E89498
:10143000BB2766277727CB0197F908950BD0C4CF38
:10144000B5DF28F0BADF18F0952309F0A6CFABCFAF
:101450001124EECFCADFA0F3959FD1F3950F50E092
:10146000551F629FF001729FBB27F00DB11D639F56
:10147000AA27F00DB11DAA1F649F6627B00DA11DFC
:10148000661F829F2227B00DA11D621F739FB00DA2
:10149000A11D621F839FA00D611D221F749F332712
:1014A000A00D611D231F849F600D211D822F762FAB
:1014B0006A2F11249F5750408AF0E1F088234AF0A8
:1014C000EE0FFF1FBB1F661F771F881F91505040F4
:1014D000A9F79E3F510570F060CFAACF5F3FECF3B4
:1014E000983EDCF3869577956795B795F795E795E0
:1014F0009F5FC1F7FE2B880F911D9695879597F9F1
:101500000895629FD001739FF001829FE00DF11D4D
:10151000649FE00DF11D929FF00D839FF00D749F6D
:10152000F00D659FF00D9927729FB00DE11DF91F19
:10153000639FB00DE11DF91FBD01CF011124089576
:10154000A1E21A2EAA1BBB1BFD010DC0AA1FBB1FC7
:10155000EE1FFF1FA217B307E407F50720F0A21B39
:10156000B30BE40BF50B661F771F881F991F1A94A6
:1015700069F760957095809590959B01AC01BD01D0
:10158000CF010895EE0FFF1F0590F491E02D09940F
:04159000F894FFCFFD
:1015940000000000F10596068705B8059805E105E9
:00000001FF
